{
  "_format": "hh-sol-artifact-1",
  "contractName": "VideoManager",
  "sourceName": "contracts/VideoManager.sol",
  "abi": [
    {
      "inputs": [],
      "stateMutability": "nonpayable",
      "type": "constructor"
    },
    {
      "inputs": [],
      "name": "DoNotOwnVideo",
      "type": "error"
    },
    {
      "inputs": [],
      "name": "SendError",
      "type": "error"
    },
    {
      "inputs": [],
      "name": "VideoDisabledError",
      "type": "error"
    },
    {
      "inputs": [],
      "name": "VideoDoesNotExist",
      "type": "error"
    },
    {
      "inputs": [],
      "name": "VideoExists",
      "type": "error"
    },
    {
      "inputs": [],
      "name": "WrongPrice",
      "type": "error"
    },
    {
      "anonymous": false,
      "inputs": [
        {
          "indexed": false,
          "internalType": "address",
          "name": "creator",
          "type": "address"
        },
        {
          "indexed": false,
          "internalType": "uint256",
          "name": "price",
          "type": "uint256"
        },
        {
          "indexed": false,
          "internalType": "string",
          "name": "videoHash",
          "type": "string"
        },
        {
          "indexed": false,
          "internalType": "uint256",
          "name": "referalFee",
          "type": "uint256"
        },
        {
          "indexed": false,
          "internalType": "uint256",
          "name": "publisherFee",
          "type": "uint256"
        }
      ],
      "name": "VideoCreated",
      "type": "event"
    },
    {
      "anonymous": false,
      "inputs": [
        {
          "indexed": false,
          "internalType": "string",
          "name": "videoHash",
          "type": "string"
        },
        {
          "indexed": false,
          "internalType": "address",
          "name": "creator",
          "type": "address"
        }
      ],
      "name": "VideoDisabled",
      "type": "event"
    },
    {
      "anonymous": false,
      "inputs": [
        {
          "indexed": false,
          "internalType": "address",
          "name": "creator",
          "type": "address"
        },
        {
          "indexed": false,
          "internalType": "uint256",
          "name": "price",
          "type": "uint256"
        },
        {
          "indexed": false,
          "internalType": "string",
          "name": "videoHash",
          "type": "string"
        },
        {
          "indexed": false,
          "internalType": "uint256",
          "name": "referalFee",
          "type": "uint256"
        },
        {
          "indexed": false,
          "internalType": "uint256",
          "name": "publisherFee",
          "type": "uint256"
        }
      ],
      "name": "VideoEdited",
      "type": "event"
    },
    {
      "anonymous": false,
      "inputs": [
        {
          "indexed": false,
          "internalType": "address",
          "name": "buyer",
          "type": "address"
        },
        {
          "indexed": false,
          "internalType": "uint256",
          "name": "price",
          "type": "uint256"
        },
        {
          "indexed": false,
          "internalType": "address",
          "name": "refferer",
          "type": "address"
        },
        {
          "indexed": false,
          "internalType": "string",
          "name": "videoHash",
          "type": "string"
        },
        {
          "indexed": false,
          "internalType": "address",
          "name": "publisher",
          "type": "address"
        }
      ],
      "name": "VideoPurchased",
      "type": "event"
    },
    {
      "inputs": [
        {
          "internalType": "uint256",
          "name": "_price",
          "type": "uint256"
        },
        {
          "internalType": "string",
          "name": "_videoHash",
          "type": "string"
        },
        {
          "internalType": "uint256",
          "name": "_referalFee",
          "type": "uint256"
        },
        {
          "internalType": "uint256",
          "name": "_publisherFee",
          "type": "uint256"
        }
      ],
      "name": "createVideo",
      "outputs": [],
      "stateMutability": "nonpayable",
      "type": "function"
    },
    {
      "inputs": [
        {
          "internalType": "string",
          "name": "_videoHash",
          "type": "string"
        }
      ],
      "name": "disableVideo",
      "outputs": [],
      "stateMutability": "nonpayable",
      "type": "function"
    },
    {
      "inputs": [
        {
          "internalType": "uint256",
          "name": "_price",
          "type": "uint256"
        },
        {
          "internalType": "string",
          "name": "_videoHash",
          "type": "string"
        },
        {
          "internalType": "uint256",
          "name": "_referalFee",
          "type": "uint256"
        },
        {
          "internalType": "uint256",
          "name": "_publisherFee",
          "type": "uint256"
        }
      ],
      "name": "editVideo",
      "outputs": [],
      "stateMutability": "nonpayable",
      "type": "function"
    },
    {
      "inputs": [
        {
          "internalType": "string",
          "name": "_videoHash",
          "type": "string"
        },
        {
          "internalType": "address",
          "name": "_referrer",
          "type": "address"
        },
        {
          "internalType": "address",
          "name": "_publisher",
          "type": "address"
        }
      ],
      "name": "getVideoAccess",
      "outputs": [],
      "stateMutability": "payable",
      "type": "function"
    },
    {
      "inputs": [
        {
          "internalType": "string",
          "name": "",
          "type": "string"
        },
        {
          "internalType": "address",
          "name": "",
          "type": "address"
        }
      ],
      "name": "videoAccess",
      "outputs": [
        {
          "internalType": "bool",
          "name": "",
          "type": "bool"
        }
      ],
      "stateMutability": "view",
      "type": "function"
    },
    {
      "inputs": [
        {
          "internalType": "string",
          "name": "",
          "type": "string"
        }
      ],
      "name": "videos",
      "outputs": [
        {
          "internalType": "address",
          "name": "creator",
          "type": "address"
        },
        {
          "internalType": "uint256",
          "name": "price",
          "type": "uint256"
        },
        {
          "internalType": "uint256",
          "name": "referalFee",
          "type": "uint256"
        },
        {
          "internalType": "uint256",
          "name": "publishingFee",
          "type": "uint256"
        },
        {
          "internalType": "string",
          "name": "ipfsHash",
          "type": "string"
        },
        {
          "internalType": "bool",
          "name": "disabled",
          "type": "bool"
        }
      ],
      "stateMutability": "view",
      "type": "function"
    }
  ],
  "bytecode": "0x608060405234801561001057600080fd5b50611784806100206000396000f3fe6080604052600436106100555760003560e01c8063018636321461005a5780636a8a7de8146100765780636ef4de9e1461009f57806374681084146100e15780638fa68ca61461010a578063ab6297eb14610147575b600080fd5b610074600480360381019061006f9190611057565b610170565b005b34801561008257600080fd5b5061009d60048036038101906100989190611158565b6106d7565b005b3480156100ab57600080fd5b506100c660048036038101906100c191906110c3565b6109af565b6040516100d896959493929190611399565b60405180910390f35b3480156100ed57600080fd5b5061010860048036038101906101039190611158565b610ab6565b005b34801561011657600080fd5b50610131600480360381019061012c9190611104565b610d18565b60405161013e9190611401565b60405180910390f35b34801561015357600080fd5b5061016e60048036038101906101699190611012565b610d5d565b005b600073ffffffffffffffffffffffffffffffffffffffff166000858560405161019a9291906112b3565b908152602001604051809103902060000160009054906101000a900473ffffffffffffffffffffffffffffffffffffffff1673ffffffffffffffffffffffffffffffffffffffff16141561021a576040517f7861a5bf00000000000000000000000000000000000000000000000000000000815260040160405180910390fd5b6000848460405161022c9291906112b3565b908152602001604051809103902060050160009054906101000a900460ff1615610282576040517f245e267800000000000000000000000000000000000000000000000000000000815260040160405180910390fd5b600084846040516102949291906112b3565b9081526020016040518091039020600101543410156102df576040517ff7760f2500000000000000000000000000000000000000000000000000000000815260040160405180910390fd5b6000349050600073ffffffffffffffffffffffffffffffffffffffff168373ffffffffffffffffffffffffffffffffffffffff161461040c5760006103e86000878760405161032f9291906112b3565b9081526020016040518091039020600201543461034c91906114d5565b61035691906114a4565b905060008473ffffffffffffffffffffffffffffffffffffffff168260405161037e906112cc565b60006040518083038185875af1925050503d80600081146103bb576040519150601f19603f3d011682016040523d82523d6000602084013e6103c0565b606091505b50509050806103fb576040517f8a48aa1f00000000000000000000000000000000000000000000000000000000815260040160405180910390fd5b8183610407919061152f565b925050505b600073ffffffffffffffffffffffffffffffffffffffff168273ffffffffffffffffffffffffffffffffffffffff16146105345760006103e8600087876040516104579291906112b3565b9081526020016040518091039020600301543461047491906114d5565b61047e91906114a4565b905060008373ffffffffffffffffffffffffffffffffffffffff16826040516104a6906112cc565b60006040518083038185875af1925050503d80600081146104e3576040519150601f19603f3d011682016040523d82523d6000602084013e6104e8565b606091505b5050905080610523576040517f8a48aa1f00000000000000000000000000000000000000000000000000000000815260040160405180910390fd5b818361052f919061152f565b925050505b60008086866040516105479291906112b3565b908152602001604051809103902060000160009054906101000a900473ffffffffffffffffffffffffffffffffffffffff1673ffffffffffffffffffffffffffffffffffffffff168260405161059c906112cc565b60006040518083038185875af1925050503d80600081146105d9576040519150601f19603f3d011682016040523d82523d6000602084013e6105de565b606091505b5050905080610619576040517f8a48aa1f00000000000000000000000000000000000000000000000000000000815260040160405180910390fd5b600180878760405161062c9291906112b3565b908152602001604051809103902060003373ffffffffffffffffffffffffffffffffffffffff1673ffffffffffffffffffffffffffffffffffffffff16815260200190815260200160002060006101000a81548160ff0219169083151502179055507f1c9631e3a1a210480935184ac295290b0e344a8a567f44960e160fc023ff96093334868989886040516106c7969594939291906112e1565b60405180910390a1505050505050565b600073ffffffffffffffffffffffffffffffffffffffff16600085856040516107019291906112b3565b908152602001604051809103902060000160009054906101000a900473ffffffffffffffffffffffffffffffffffffffff1673ffffffffffffffffffffffffffffffffffffffff1614610780576040517fe97235aa00000000000000000000000000000000000000000000000000000000815260040160405180910390fd5b610788610e45565b33816000019073ffffffffffffffffffffffffffffffffffffffff16908173ffffffffffffffffffffffffffffffffffffffff16815250508581602001818152505084848080601f016020809104026020016040519081016040528093929190818152602001838380828437600081840152601f19601f8201169050808301925050505050505081608001819052508281604001818152505081816060018181525050806000868660405161083e9291906112b3565b908152602001604051809103902060008201518160000160006101000a81548173ffffffffffffffffffffffffffffffffffffffff021916908373ffffffffffffffffffffffffffffffffffffffff16021790555060208201518160010155604082015181600201556060820151816003015560808201518160040190805190602001906108cd929190610e93565b5060a08201518160050160006101000a81548160ff02191690831515021790555090505060018086866040516109049291906112b3565b908152602001604051809103902060003373ffffffffffffffffffffffffffffffffffffffff1673ffffffffffffffffffffffffffffffffffffffff16815260200190815260200160002060006101000a81548160ff0219169083151502179055507f2e16da318378a4689ee57036b830bd796dec4b6eb284ae4e53cecb870725438533878787878760405161099f9695949392919061133d565b60405180910390a1505050505050565b6000818051602081018201805184825260208301602085012081835280955050505050506000915090508060000160009054906101000a900473ffffffffffffffffffffffffffffffffffffffff1690806001015490806002015490806003015490806004018054610a20906115ed565b80601f0160208091040260200160405190810160405280929190818152602001828054610a4c906115ed565b8015610a995780601f10610a6e57610100808354040283529160200191610a99565b820191906000526020600020905b815481529060010190602001808311610a7c57829003601f168201915b5050505050908060050160009054906101000a900460ff16905086565b3373ffffffffffffffffffffffffffffffffffffffff1660008585604051610adf9291906112b3565b908152602001604051809103902060000160009054906101000a900473ffffffffffffffffffffffffffffffffffffffff1673ffffffffffffffffffffffffffffffffffffffff1614610b5e576040517f3b90396000000000000000000000000000000000000000000000000000000000815260040160405180910390fd5b610b66610e45565b33816000019073ffffffffffffffffffffffffffffffffffffffff16908173ffffffffffffffffffffffffffffffffffffffff16815250508581602001818152505084848080601f016020809104026020016040519081016040528093929190818152602001838380828437600081840152601f19601f82011690508083019250505050505050816080018190525082816040018181525050818160600181815250508060008686604051610c1c9291906112b3565b908152602001604051809103902060008201518160000160006101000a81548173ffffffffffffffffffffffffffffffffffffffff021916908373ffffffffffffffffffffffffffffffffffffffff1602179055506020820151816001015560408201518160020155606082015181600301556080820151816004019080519060200190610cab929190610e93565b5060a08201518160050160006101000a81548160ff0219169083151502179055509050507fdf832345c10ceb8ec27fe58d9c38da91ccca4952f61f86045c11f735b1a9936e338787878787604051610d089695949392919061133d565b60405180910390a1505050505050565b6001828051602081018201805184825260208301602085012081835280955050505050506020528060005260406000206000915091509054906101000a900460ff1681565b3373ffffffffffffffffffffffffffffffffffffffff1660008383604051610d869291906112b3565b908152602001604051809103902060000160009054906101000a900473ffffffffffffffffffffffffffffffffffffffff1673ffffffffffffffffffffffffffffffffffffffff1614610e05576040517f3b90396000000000000000000000000000000000000000000000000000000000815260040160405180910390fd5b600160008383604051610e199291906112b3565b908152602001604051809103902060050160006101000a81548160ff0219169083151502179055505050565b6040518060c00160405280600073ffffffffffffffffffffffffffffffffffffffff168152602001600081526020016000815260200160008152602001606081526020016000151581525090565b828054610e9f906115ed565b90600052602060002090601f016020900481019282610ec15760008555610f08565b82601f10610eda57805160ff1916838001178555610f08565b82800160010185558215610f08579182015b82811115610f07578251825591602001919060010190610eec565b5b509050610f159190610f19565b5090565b5b80821115610f32576000816000905550600101610f1a565b5090565b6000610f49610f4484611441565b61141c565b905082815260208101848484011115610f6157600080fd5b610f6c8482856115ab565b509392505050565b600081359050610f8381611720565b92915050565b60008083601f840112610f9b57600080fd5b8235905067ffffffffffffffff811115610fb457600080fd5b602083019150836001820283011115610fcc57600080fd5b9250929050565b600082601f830112610fe457600080fd5b8135610ff4848260208601610f36565b91505092915050565b60008135905061100c81611737565b92915050565b6000806020838503121561102557600080fd5b600083013567ffffffffffffffff81111561103f57600080fd5b61104b85828601610f89565b92509250509250929050565b6000806000806060858703121561106d57600080fd5b600085013567ffffffffffffffff81111561108757600080fd5b61109387828801610f89565b945094505060206110a687828801610f74565b92505060406110b787828801610f74565b91505092959194509250565b6000602082840312156110d557600080fd5b600082013567ffffffffffffffff8111156110ef57600080fd5b6110fb84828501610fd3565b91505092915050565b6000806040838503121561111757600080fd5b600083013567ffffffffffffffff81111561113157600080fd5b61113d85828601610fd3565b925050602061114e85828601610f74565b9150509250929050565b60008060008060006080868803121561117057600080fd5b600061117e88828901610ffd565b955050602086013567ffffffffffffffff81111561119b57600080fd5b6111a788828901610f89565b945094505060406111ba88828901610ffd565b92505060606111cb88828901610ffd565b9150509295509295909350565b6111e181611563565b82525050565b6111f081611575565b82525050565b60006112028385611488565b935061120f8385846115ab565b6112188361170c565b840190509392505050565b600061122f8385611499565b935061123c8385846115ab565b82840190509392505050565b600061125382611472565b61125d8185611488565b935061126d8185602086016115ba565b6112768161170c565b840191505092915050565b600061128e60008361147d565b91506112998261171d565b600082019050919050565b6112ad816115a1565b82525050565b60006112c0828486611223565b91508190509392505050565b60006112d782611281565b9150819050919050565b600060a0820190506112f660008301896111d8565b61130360208301886112a4565b61131060408301876111d8565b81810360608301526113238185876111f6565b905061133260808301846111d8565b979650505050505050565b600060a08201905061135260008301896111d8565b61135f60208301886112a4565b81810360408301526113728186886111f6565b905061138160608301856112a4565b61138e60808301846112a4565b979650505050505050565b600060c0820190506113ae60008301896111d8565b6113bb60208301886112a4565b6113c860408301876112a4565b6113d560608301866112a4565b81810360808301526113e78185611248565b90506113f660a08301846111e7565b979650505050505050565b600060208201905061141660008301846111e7565b92915050565b6000611426611437565b9050611432828261161f565b919050565b6000604051905090565b600067ffffffffffffffff82111561145c5761145b6116dd565b5b6114658261170c565b9050602081019050919050565b600081519050919050565b600081905092915050565b600082825260208201905092915050565b600081905092915050565b60006114af826115a1565b91506114ba836115a1565b9250826114ca576114c961167f565b5b828204905092915050565b60006114e0826115a1565b91506114eb836115a1565b9250817fffffffffffffffffffffffffffffffffffffffffffffffffffffffffffffffff048311821515161561152457611523611650565b5b828202905092915050565b600061153a826115a1565b9150611545836115a1565b92508282101561155857611557611650565b5b828203905092915050565b600061156e82611581565b9050919050565b60008115159050919050565b600073ffffffffffffffffffffffffffffffffffffffff82169050919050565b6000819050919050565b82818337600083830152505050565b60005b838110156115d85780820151818401526020810190506115bd565b838111156115e7576000848401525b50505050565b6000600282049050600182168061160557607f821691505b60208210811415611619576116186116ae565b5b50919050565b6116288261170c565b810181811067ffffffffffffffff82111715611647576116466116dd565b5b80604052505050565b7f4e487b7100000000000000000000000000000000000000000000000000000000600052601160045260246000fd5b7f4e487b7100000000000000000000000000000000000000000000000000000000600052601260045260246000fd5b7f4e487b7100000000000000000000000000000000000000000000000000000000600052602260045260246000fd5b7f4e487b7100000000000000000000000000000000000000000000000000000000600052604160045260246000fd5b6000601f19601f8301169050919050565b50565b61172981611563565b811461173457600080fd5b50565b611740816115a1565b811461174b57600080fd5b5056fea264697066735822122068e7ceb5c827673567313a5acd1a361718e27eb16c03aac3924a1f65ebdc151264736f6c63430008040033",
  "linkReferences": {},
  "deployedLinkReferences": {}
}